:100000000C94C2150C94EC140C9497140C940000EE
:100010000C9415160C9400000C9400000C945214CF
:100020000C9400000C9400000C9415150C94000026
:100030000C9400000C9400000C9400000C94000040
:100040000C9400000C9400000C9400000C94000030
:100050000C940000002329F4112319F4222309F43D
:1000600033230895F7DF39F041585F4F342F220FC3
:1000700036952795362B08953AD021F0662309F05E
:1000800098D098940895E6DF11F19F938F938EE7AF
:1000900090E0332351F0369527951795079548172B
:1000A0005907B4F44F5F5F4FF4CF80959095019658
:1000B00022239AF0000F111F221F481759071CF026
:1000C00041505040F5CF002711272227332708C081
:1000D00033270FEF102F2FE7322F8F919F91C2DF21
:1000E00008952FB8BEB1B7FD01C0FCCF0895B2DFAF
:1000F00079F0632F6078220F331F432F5FE7451B92
:1001000055275040269530E8232B3327989403C079
:10011000442755276627089501B1087F0895BBB18C
:10012000B5FD01C0FCCFBBB1B6FF03C0BBB1B0642D
:10013000BBB92CB80895DBDF81F1E62ED52EC42E95
:10014000B32EA22E912E802E002D112D222D332D77
:10015000CEDF19F16E254C0D5D1D40385307F4F4C8
:1001600041387FEF5707FCF088279927AA27BB273C
:1001700070E2B695A795979587953795279517952A
:10018000079520F4880D991DAA1DBB1D7A9589F746
:10019000032F3A2F292F182F76DF0AC00FEF102FC9
:1001A0002FE73FE7FACF0027102F202F302FF5CF72
:1001B000089500951095209530950F5F1F4F2F4F94
:1001C0003F4F089559DF09F441C0E62ED52EC42EC5
:1001D000B32EA22E912E802E002D112D222D332DE7
:1001E0004BDF09F43DC0842F952F8C199D09B9F080
:1001F00072F49095809501964C2D5D2D883180F597
:1002000035952795179507950197D1F708C088313F
:10021000E8F4B594A794979487940197D1F766274B
:100220002EF0080D191D2A1D3B1D09C0801A910AC8
:10023000A20AB30A082D192D2A2D3B2D332312F4BF
:10024000B8DF60E820DF01C00DDF16C0002D112DE2
:10025000222D332DD6F7FEDEC1F340E83427F5CF4B
:10026000082D192D2A2D3B2D4C2D5D2D6E2D332360
:100270005AF79FDF60E8E8CF08952F9240917A0007
:1002800050917B0060917C0070917D00B4EAB6BF14
:10029000B6B7B7FD25C000917A0010917B00209180
:1002A0007C0030917D00B02FB12BB22BB32BB9F075
:1002B000B42FB52BB62BB72B49F4B5E02B2EE0911C
:1002C000A300F091A400099501E010C08A019B01F0
:1002D0000150104020403040A801B90100C0D8CFE3
:1002E0001BDF0830B0E009F0B1E00B2F2F9008952C
:1002F0002F9240917A0050917B0060917C00709128
:100300007D0023B8B4E8B6BFB6B7B7FD24C00091EE
:100310007A0010917B0020917C0030917D00B02FFD
:10032000B12BB22BB32BB1F0B42FB52BB62BB72B0F
:1003300041F4B4E02B2EE091A300F091A4000995C4
:100340000AC08A019B010150104020403040A801A2
:10035000B90100C0D9CF2F9008952F9240917A0013
:1003600050917B0060917C0070917D00B4E8B6BF35
:1003700020FAB6B7B6F9B6BFB6B7B7FD25C000913B
:100380007A0010917B0020917C0030917D00B02F8D
:10039000B12BB22BB32BB9F0B42FB52BB62BB72B97
:1003A00049F4B3E02B2EE091A300F091A40009954D
:1003B00001E00BC08A019B010150104020403040F9
:1003C000A801B90100C0D8CF03B12F90089500242F
:1003D00000FD040E440F11F00695D1F7002D08958D
:1003E0002227002400FF02C0040E251F440F551FC2
:1003F0004115510529F0169507951050004091F7C9
:10040000122F002D0895B4E9B6BF0895E894DADEFE
:1004100008956894D7DE0895042E152E262E372EC3
:100420008ADE002E112E222E332E089560DEF1F08A
:100430005523C2F04F31A8F44731C1F050F4419533
:10044000495E05C035952795179507954A95D1F7CB
:100450000DC04751000F111F221F331F4A95D1F7BE
:1004600005C03FE7232F132F032F03C0662309F096
:10047000A0DE0895022D06950695069506954AE09C
:10048000A6DF122D1F70010F08952F922F92F5DE17
:10049000B0ED2B2E2DDF2F902BDFEFDEB1ED2B2ECD
:1004A00027DF22245ADF0093BF00ADDF0091BF0099
:1004B0002F900895AEDF332332F0CCDD11F001E050
:1004C00003C0002701C00FEF0895042E152E262E1D
:1004D000372EF0DF00230895C801BA0197FB092EDB
:1004E00007260AD077FD04D00CD006D000201AF4DD
:1004F000709561957F4F0895F6F7909581959F4F80
:100500000895AA1BBB1B51E107C0AA1FBB1FA6175A
:10051000B70710F0A61BB70B881F991F5A95A9F7AC
:1005200080959095BC01CD0108950895992779E0B3
:1005300004C0991F941708F0941B001F7A95C9F7FF
:10054000009508952F923F922F9297DEB0ED2B2EBB
:10055000CFDE2F90CDDE3F90232CCADE54DF2F90CC
:100560000895B3DF1CF40024039401C0002408950F
:10057000B5B3B064B5BB48BA1BE003E60A95F1F722
:100580001A95E1F7B5B3BF7BB5BBB5B3B062B5BBE8
:1005900038BA1BE003E60A95F1F71A95E1F7B5B30F
:1005A000BF7DB5BBB5B3B061B5BB28BA1BE003E6F0
:1005B0000A95F1F71A95E1F7B5B3BF7EB5BB08957B
:1005C0002F92B2E02B2E61DF0091BF00102F1F7021
:1005D0001093BC00007F0093BE000695069506951B
:1005E00006950093BE00000F000F000F000F010FD3
:1005F0000093BD00202E3EDF0093BD002F90089594
:100600008101920140E050E060E271E405DF1801F1
:1006100029010CDF98013F932F934AE050E05CDF03
:100620008C012F913F9100939B0010939C008901B6
:100630004AE050E051DF8B0100939700109398003F
:100640004AE050E049DF8C010093990010939A0032
:100650004AE050E000919700109198003DDF8B0137
:1006600000939D0010939E004AE050E035DF8C011E
:1006700000939F001093A0004AE050E000919D007D
:1006800010919E0029DF8B010093A1001093A2001E
:10069000B5B3B064B5BB2AE630E000919B00109181
:1006A0009C00F801E20FF31F008108BB1BE003E68A
:1006B0000A95F1F71A95E1F7B5B3BF7BB5BBB5B3B2
:1006C000B062B5BB2AE630E00091990010919A0023
:1006D000F801E20FF31F00810F7708BB1BE003E670
:1006E0000A95F1F71A95E1F7B5B3BF7DB5BBB5B380
:1006F000B061B5BB2AE630E000919F001091A000E8
:10070000F801E20FF31F008108BB1BE003E60A9526
:10071000F1F71A95E1F7B5B3BF7EB5BB0895002E8A
:10072000112E222E332E042F152F262F372FC2DE07
:1007300000231CF40024039401C0002408954AE01F
:10074000022DF4DE092F00939B00B0E0B0939C00D3
:100750004AE0022DEBDE00939700B0E0B0939800E2
:100760004AE050E00091970010919800B5DE8C01AE
:100770000093990010939A004AE050E0009197008E
:1007800010919800A9DE8B0100939D0010939E00AC
:100790004AE050E0A1DE8C0100939F001093A0007E
:1007A0004AE050E000919D0010919E0095DE8B0183
:1007B0000093A1001093A200B5B3B064B5BB2AE6C4
:1007C00030E000919B0010919C00F801E20FF31FB4
:1007D000008108BB1BE003E60A95F1F71A95E1F7E3
:1007E000B5B3BF7BB5BBB5B3B062B5BB2AE630E0ED
:1007F0000091990010919A00F801E20FF31F008117
:1008000008BB1BE003E60A95F1F71A95E1F7B5B3CB
:10081000BF7DB5BBB5B3B061B5BB2AE630E0009192
:100820009F001091A000F801E20FF31F008108BBA8
:100830001BE003E60A95F1F71A95E1F7B5B3BF7E21
:10084000B5BB089507B1007E022907B9B6B1B064FF
:10085000B6B9B6B1B6FF01C0FCCF24B130E005B1E6
:10086000102F0027022B132B089547E166275527E9
:1008700026F0332312F49DDC60E805DC08953F93F5
:100880002F931F930F93002D112D222D332D2FDC2D
:1008900009F44BC0E62ED52EC42EB32EA22E912ED7
:1008A000802E0F911F912F913F9121DC61F16E25D8
:1008B0004C195D09403853073CF541387FEF570725
:1008C0007CF180E27724632E522E412E302F222796
:1008D00011270027000F111F221F331F441C551C16
:1008E000661C771C28F0481859086A087B0804C061
:1008F000480C591C6A1C7B1C0AF001608A9551F750
:1009000041505040C0DB16C00FEF102F2FE73FE7DC
:100910006623C9F39FDBB9F3342D30E83425F3CFD8
:100920000027102F202F302FEECF0F900F900F9019
:100930000F90EACF0895B2E2B093A500B4E0B0936F
:10094000A600B7E8B6B9B0E0B7B908952F92B1E004
:100950002B2E9BDD0091BF00102F1F701093BC0049
:10096000007F0093BE0006950695069506950093B8
:10097000BE00000F000F000F000F010F0093C20018
:10098000202E78DD0093C2002F90089509E0021513
:1009900078F44AE0022DCADD000F000F000F000FAF
:1009A000102F4AE0022DC2DD092F012B102F01C0AC
:1009B000122D012F0895042E152E262E372E29DDF7
:1009C000002E112E222E332E08952F923F92810158
:1009D0007F926F925F924F92302EB4E02B2EB2DD59
:1009E0004F905F908201302EB5E02B2EABDD6F90E3
:1009F0007F908301302EB6E02B2EA4DD3F902F9008
:100A00000895CF93DF93CDB7DEB72297CDBFDEBF7A
:100A10002196288239820FB6BCB3B1FF01C0FCCF4A
:100A2000F8941C2F2D2FE12FF22F319600810FBB50
:100A3000E12FF22F00810EBB4DBABCB3B460BCBB3A
:100A4000BCB3B260BCBB0FBE2196CDBFDEBFDF9191
:100A5000CF91089516E00BE20A95F1F71A95E1F7A8
:100A60000000000008952F9210DD0091BF00102FAC
:100A70001F701093BC00007F0093BE000695069582
:100A8000069506950093BE00000F000F000F000FA3
:100A9000010F0093C300202EEDDC0093C3002F90C4
:100AA000089530E040E03615470520F5E32FF42F98
:100AB000E40DF51D2081032F142F020D131D5F92ED
:100AC0004F923F922F92422E18019BDF2F903F9022
:100AD0004F905F9023E018E008E70A95F1F71A9528
:100AE000E1F72A95D1F7032F142F0F5F1F4F302FF7
:100AF000412FD9CF0895042E152E262E372E86DCB1
:100B0000002E112E222E332E08952F923F92810116
:100B10007F926F925F924F92302E222413DD4F907E
:100B20005F908201302EB1E02B2E0CDD6F907F9014
:100B30008301302EB2E02B2E05DD3F902F900895DB
:100B4000689493DE08952F924F923F9222249DDC69
:100B50001091BF00012F0F700093B800012F007F8C
:100B60000093C40006950695069506950093C4006B
:100B7000B1E02B2E8ADC1091BF00012F0F70009383
:100B8000C900012F007F0093C800069506950695C1
:100B900006950093C800B2E02B2E77DC3F904F9073
:100BA0001091BF00012F0F700093C700012F007F2D
:100BB0000093CC0006950695069506950093CC000B
:100BC000232CE4DE0F700093CB00232CDFDE007FAC
:100BD00006950695069506950093CA00242CD6DE48
:100BE0000F700093C600242CD1DE007F0695069579
:100BF000069506950093C5001091C9000091CB00A1
:100C00001017A1F41091C8000091CA00101771F4D8
:100C10001091C7000091C600101741F41091CC004C
:100C20000091C500101711F401E001C000E02F9001
:100C30000895042E152E262E372E21DE002E112E7D
:100C4000222E332E08952F924F923F9222241DDCA4
:100C50001091BF00012F0F700093C000012F007F83
:100C60000093C10006950695069506950093C10070
:100C7000B1E02B2E0ADC1091BF00012F0F70009302
:100C8000BB00012F007F0093B500069506950695E1
:100C900006950093B500B2E02B2EF7DB3F904F9006
:100CA0001091BF00012F0F700093B600012F007F3D
:100CB0000093B30006950695069506950093B3003C
:100CC000232C64DE0F700093B400232C5FDE007FC2
:100CD00006950695069506950093B900242C56DED8
:100CE0000F700093BA00242C51DE007F0695069504
:100CF000069506950093B7001091BB000091B400D3
:100D00001017A1F41091B5000091B900101771F4FB
:100D10001091B6000091BA00101741F41091B30081
:100D20000091B700101711F401E001C000E02F900E
:100D3000089501DE87DD0895C8DB1CF000240394CC
:100D400001C000240895B3B7BF7BB3BFB3B7B77F6B
:100D5000B3BFB3B7B160B3BFB3B7B460B3BFBFB7CE
:100D6000B068BFBFBFEFBCBFB9B7B260B9BF08952D
:100D70002F92B2E02B2E89DB1091BF00012F0F7054
:100D80000093BC00012F007F0093BE0006950695DE
:100D9000069506950093BE00B1E02B2E76DB1091F0
:100DA000BF00012F0F700093BC00012F007F009344
:100DB000BE0006950695069506950093BE00222472
:100DC00064DB1091BF00012F0F700093BC00012F56
:100DD000007F0093BE000695069506950695009344
:100DE000BE0025E01FE002EF0A95F1F71A95E1F742
:100DF0002A95D1F72F90089568DB19F40024039405
:100E000001C0002408952F923F924F925F926F92FB
:100E10007F92B1E02B1609F061C0B0E0B09387007B
:100E2000B0938800B4ECB0938900B1E4B0938A0029
:100E3000B0E0B0937400B0937500B4EDB093760059
:100E4000B1E4B0937700B4EBB0936200B0E0B0933C
:100E50006300B8E04B2E22243324D3DD4424B1E0D8
:100E60002B2EB0E03B2ECDDDB1E14B2EB2E02B2E90
:100E7000B0E03B2EC6DD4424B3E02B2EB0E03B2E89
:100E8000C0DD4424B4E12B2EB0E03B2EBADDB4E04B
:100E90006B2EB0E07B2EB7E84B2EB0E05B2EB4E0BB
:100EA0002B2EB0E03B2EFDDDB4E06B2EB0E07B2EB0
:100EB000B4E74B2EB0E05B2EB8E02B2EB0E03B2E1B
:100EC000F0DDB2E06B2EB0E07B2EB2E64B2EB0E050
:100ED0005B2EB2E12B2EB0E03B2EE3DD7F906F90D6
:100EE0005F904F903F902F900895CF93DF93CDB7B1
:100EF000DEB72297CDBFDEBF2196B0E0B983B42D17
:100F000011E0BB2319F0110FBA95E9F71883F1012D
:100F1000008101230023B0E009F4B1E00B2F062586
:100F2000B1F000E0051530F495DD94DD052D01509C
:100F3000502EF7CFF1011081088101230023B0E08A
:100F400009F4B1E00B2F062511F0BFEFB983098139
:100F50002196CDBFDEBFDF91CF910895B0E3B1B947
:100F6000B4E0B6BF08952F923F924F9225E11BE463
:100F70000FEB0A95F1F71A95E1F72A95D1F70000E2
:100F8000B0B3B3FD08C0B7EC4B2EB2E93B2EB2E9CB
:100F90002B2EEEDAF5CF25E11BE40FEB0A95F1F7E6
:100FA0001A95E1F72A95D1F70000B0B3B3FD45C01B
:100FB00020906400C4DBB9B3B5FD04C0B9B3B6FD7D
:100FC00001C03AC0B9B3B5FF0EC025E01FE002EF83
:100FD0000A95F1F71A95E1F72A95D1F70091640087
:100FE0000F5F00936400B9B3B6FF0EC025E01FE0A9
:100FF00002EF0A95F1F71A95E1F72A95D1F70091DA
:1010000064000150009364001091640007E101172F
:1010100018F4B0E0B093640000916400003018F45C
:10102000B0E0B0936400B0E0B0938400B0E0B0935F
:101030008C00B0938D00BFCFB8CF409064002224C5
:101040003324DFDC25E11BE40FEB0A95F1F71A9559
:10105000E1F72A95D1F70000B0B3B3FD45C0209069
:1010600061006DDBB9B3B5FD04C0B9B3B6FD01C015
:101070003AC0B9B3B5FF0EC025E01FE002EF0A95F4
:10108000F1F71A95E1F72A95D1F7009161000F5F0A
:1010900000936100B9B3B6FF0EC025E01FE002EF78
:1010A0000A95F1F71A95E1F72A95D1F700916100B9
:1010B000015000936100109161000BE3011718F4D7
:1010C000B0E0B093610000916100003018F4B0E02E
:1010D000B0936100B0E0B0938C00B0938D00B0E0AD
:1010E000B0938400BFCFB8CF40906100B1E02B2E09
:1010F000B0E03B2E86DC4F903F902F900895CF9329
:10110000DF93CDB7DEB72297CDBFDEBF2196288211
:1011100039820FB6BCB3B1FF01C0FCCFF8941C2FCD
:101120002D2FE12FF22F319600810FBBE12FF22FEF
:1011300000810EBBBCB3B160BCBB0FBE0DB321962A
:10114000CDBFDEBFDF91CF910895BFEFB7BBB4B382
:10115000B061B4BBB4B3B062B4BBB4B3B064B4BB3D
:10116000BAB3BF7DBABBBAB3BF7BBABBB1B3B77FAB
:10117000B1BBB1B3BB7FB1BBBAB3B860BABBB4B398
:10118000B860B4BB0895B2E2B093A500B4E0B093E8
:10119000A600B7E8B6B927B808952F923F924F92AC
:1011A0005F926F927F92B0B3B3FD08C0B2E94B2E4D
:1011B000B7EC3B2EB2E92B2EDBD9F5CF25E11BE4B2
:1011C0000FEB0A95F1F71A95E1F72A95D1F7000090
:1011D000B0B3B3FD59C020906200B1DAB9B3B5FD28
:1011E00004C0B9B3B6FD01C04EC0B9B3B5FF16C057
:1011F00020906200A4DA23E018E008E70A95F1F7EE
:101200001A95E1F72A95D1F70091620010916300D9
:101210000F5F1F4F0093620010936300B9B3B6FFD6
:1012200016C0209062008BDA23E018E008E70A95E8
:10123000F1F71A95E1F72A95D1F700916200109124
:1012400063000150104000936200109363002091EE
:1012500062003091630008E512E00217130728F4DA
:10126000B0E0B0936200B09363000091620010910F
:101270006300103009F4003028F4B0E0B09362004D
:10128000B0936300ABCFA4CFB2E06B2EB0E07B2E67
:10129000B2E64B2EB0E05B2EB2E12B2EB0E03B2E3F
:1012A00000DC7F906F905F904F903F902F9008955B
:1012B0002F923F924F9225E11BE40FEB0A95F1F735
:1012C0001A95E1F72A95D1F70000B0B3B3FD08C035
:1012D000B0E84B2EB0EC3B2EB1EC2B2E49D9F5CF1C
:1012E00025E11BE40FEB0A95F1F71A95E1F72A9532
:1012F000D1F70000B0B3B3FD44C0009168000030E6
:1013000039F4BEE84B2EBEE83B2EB0EC2B2E30D984
:1013100000916800013039F4B8EC4B2EB8EC3B2E4C
:10132000B0EC2B2E25D9B9B3B5FD04C0B9B3B6FDC9
:1013300001C01FC0B9B3B5FF0CC025E01FE002EF2C
:101340000A95F1F71A95E1F72A95D1F7B0E0B09335
:101350006800B9B3B6FF0CC025E01FE002EF0A95A4
:10136000F1F71A95E1F72A95D1F7B1E0B09368004B
:10137000DACF40906800B4E12B2EB0E03B2E41DB89
:10138000B9CF4F903F902F900895CF93DF93CDB773
:10139000DEB72297CDBFDEBF21962F923F924F92AC
:1013A0005F926F927F92B0B3B3FD04C0B6E02B2E74
:1013B000C6D9F9CFCBDA0093920002D900939300FB
:1013C00025E11BE40FEB0A95F1F71A95E1F72A9551
:1013D000D1F70000B0B3B3FD08C0B1EC4B2EB0ECB8
:1013E0003B2EB9E82B2EC4D8F5CF25E11BE40FEB3B
:1013F0000A95F1F71A95E1F72A95D1F70000B0B3F5
:10140000B3FD3DC0209093009AD9B9B3B5FD04C097
:10141000B9B3B6FD01C032C0B9B3B5FF0EC025E007
:101420001FE002EF0A95F1F71A95E1F72A95D1F737
:10143000009193000F5F00939300B9B3B6FF0EC005
:1014400025E01FE002EF0A95F1F71A95E1F72A95DA
:10145000D1F70091930001500093930010919300F5
:1014600007E1011718F4B0E0B093930000919300E6
:10147000003018F4B0E0B0939300C7CFC0CF25E19F
:101480001BE40FEB0A95F1F71A95E1F72A95D1F7CE
:101490000000B0B3B3FD08C0BFEC4B2EB8EC3B2E40
:1014A000B8EC2B2E65D8F5CF25E11BE40FEB0A95A0
:1014B000F1F71A95E1F72A95D1F70000B0B3B3FD23
:1014C0003DC0209092003BD9B9B3B5FD04C0B9B37B
:1014D000B6FD01C032C0B9B3B5FF0EC025E01FE0B4
:1014E00002EF0A95F1F71A95E1F72A95D1F70091E5
:1014F00092000F5F00939200B9B3B6FF0EC025E0D3
:101500001FE002EF0A95F1F71A95E1F72A95D1F756
:1015100000919200015000939200109192000BE311
:10152000011718F4B0E0B0939200009192000030DF
:1015300018F4B0E0B0939200C7CFC0CF25E11BE410
:101540000FEB0A95F1F71A95E1F72A95D1F700000C
:10155000B0B3B3FD08C0B6EC4B2EB6E83B2EB2E9F3
:101560002B2E06D8F5CF25E11BE40FEB0A95F1F7FA
:101570001A95E1F72A95D1F70000B0B3B3FD54C036
:1015800020909400DCD8B9B3B5FD04C0B9B3B6FD62
:1015900001C049C0B9B3B5FF0EC025E01FE002EF9E
:1015A0000A95F1F71A95E1F72A95D1F70091940081
:1015B0000F5F00939400B9B3B6FF0EC025E01FE0A3
:1015C00002EF0A95F1F71A95E1F72A95D1F7009104
:1015D0009400015000939400109194000BE30117C4
:1015E00018F4B0E0B093940000919400003018F427
:1015F000B0E0B093940020909300C8D90983209064
:101600009200C4D9088320909400C0D92981188100
:10161000622EB0E07B2E412EB0E05B2E202EB0E09B
:101620003B2E73DAB0CFA9CFB4E02B2E1CDA009397
:10163000900025E11BE40FEB0A95F1F71A95E1F70D
:101640002A95D1F70000B0B3B3FD09C0B1E94B2E24
:10165000B8E83B2EB0EC2B2E0E94B802F4CF25E167
:101660001BE40FEB0A95F1F71A95E1F72A95D1F7EC
:101670000000B0B3B3FD3DC02090900060D8B9B376
:10168000B5FD04C0B9B3B6FD01C032C0B9B3B5FFF2
:101690000EC025E01FE002EF0A95F1F71A95E1F779
:1016A0002A95D1F7009190000F5F00939000B9B395
:1016B000B6FF0EC025E01FE002EF0A95F1F71A957C
:1016C000E1F72A95D1F70091900001500093900026
:1016D000109190000FE1011718F4B0E0B093900062
:1016E00000919000003018F4B0E0B0939000C7CFA4
:1016F000C0CFB5E02B2EB7D90093910025E11BE4B4
:101700000FEB0A95F1F71A95E1F72A95D1F700004A
:10171000B0B3B3FD09C0B8EC4B2EB0EC3B2EB8EC27
:101720002B2E0E94B802F4CF25E11BE40FEB0A95A3
:10173000F1F71A95E1F72A95D1F70000B0B3B3FDA0
:101740003EC0209091000E949F03B9B3B5FD04C034
:10175000B9B3B6FD01C032C0B9B3B5FF0EC025E0C4
:101760001FE002EF0A95F1F71A95E1F72A95D1F7F4
:10177000009191000F5F00939100B9B3B6FF0EC0C6
:1017800025E01FE002EF0A95F1F71A95E1F72A9597
:10179000D1F70091910001500093910010919100B8
:1017A0000CE0011718F4B0E0B093910000919100A3
:1017B000003018F4B0E0B0939100C7CFBFCFB6E0CF
:1017C0002B2E51D90093690025E11BE40FEB0A95FC
:1017D000F1F71A95E1F72A95D1F70000B0B3B3FD00
:1017E00009C0B8E84B2EB6E83B2EB1E92B2E0E947B
:1017F000B802F4CF25E11BE40FEB0A95F1F71A9537
:10180000E1F72A95D1F70000B0B3B3FD55C02090A1
:1018100069000E949F03B9B3B5FD04C0B9B3B6FD1A
:1018200001C032C0B9B3B5FF0EC025E01FE002EF22
:101830000A95F1F71A95E1F72A95D1F70091690019
:101840000F5F00936900B9B3B6FF0EC025E01FE03B
:1018500002EF0A95F1F71A95E1F72A95D1F7009171
:1018600069000150009369001091690003E60117B7
:1018700018F4B0E0B093690000916900003018F4EA
:10188000B0E0B0936900C7CF209069007FD809838A
:10189000209091007BD808832090900077D82981F0
:1018A0001881622EB0E07B2E412EB0E05B2E202E00
:1018B000B0E03B2E8AD8A8CF7F906F905F904F907A
:1018C0003F902F902196CDBFDEBFDF91CF9108953D
:1018D0002F923F924F9225E11BE40FEB0A95F1F70F
:1018E0001A95E1F72A95D1F70000B0B3B3FD09C00E
:1018F000B7EC4B2EB0EC3B2EB2E92B2E0E94B80277
:10190000F4CF25E11BE40FEB0A95F1F71A95E1F707
:101910002A95D1F70000B0B3B3FD46C02090660011
:101920000E949F03B9B3B5FD04C0B9B3B6FD01C0B1
:101930003AC0B9B3B5FF0EC025E01FE002EF0A952B
:10194000F1F71A95E1F72A95D1F7009166000F5F3C
:1019500000936600B9B3B6FF0EC025E01FE002EFAA
:101960000A95F1F71A95E1F72A95D1F700916600EB
:101970000150009366001091660007E1011718F40A
:10198000B0E0B093660000916600003018F4B0E05B
:10199000B0936600B0E0B0938C00B0938D00B0E0DF
:1019A000B0938400BFCFB7CF40906600B2E02B2E3B
:1019B000B0E03B2E26D825E11BE40FEB0A95F1F7AA
:1019C0001A95E1F72A95D1F70000B0B3B3FD46C0F0
:1019D000209065000E949F03B9B3B5FD04C0B9B360
:1019E000B6FD01C03AC0B9B3B5FF0EC025E01FE097
:1019F00002EF0A95F1F71A95E1F72A95D1F70091D0
:101A000065000F5F00936500B9B3B6FF0EC025E017
:101A10001FE002EF0A95F1F71A95E1F72A95D1F741
:101A200000916500015000936500109165000BE383
:101A3000011718F4B0E0B093650000916500003024
:101A400018F4B0E0B0936500B0E0B0938C00B093B0
:101A50008D00B0E0B0938400BFCFB7CF4090650059
:101A6000B3E02B2EB0E03B2E0E9401054F903F903B
:101A70002F9008952F923F924F925F926F927F9294
:101A8000B0B3B3FD09C0B1EC4B2EB3EE3B2EB6ECB8
:101A90002B2E0E94B802F4CF25E11BE40FEB0A9530
:101AA000F1F71A95E1F72A95D1F70000B0B3B3FD2D
:101AB000A5C0209087003090880040908900509009
:101AC0008A000E940003B9B3B5FD04C0B9B3B6FDE6
:101AD00001C093C0B9B3B5FF29C0209087003090F2
:101AE00088004090890050908A000E94000325E001
:101AF0001FE002EF0A95F1F71A95E1F72A95D1F761
:101B000000918700109188002091890030918A000F
:101B10004DEC5CEC6CEC7DE30E947B050093870050
:101B2000109388002093890030938A00B9B3B6FFE0
:101B300029C0209087003090880040908900509004
:101B40008A000E94000325E01FE002EF0A95F1F7EA
:101B50001A95E1F72A95D1F74DEC5CEC6CEC7DE33E
:101B600000918700109188002091890030918A00AF
:101B70000E94DB0400938700109388002093890063
:101B800030938A0040E050E062E872E40091870000
:101B9000109188002091890030918A000E948F0363
:101BA000002800E009F001E0002349F0B0E0B09324
:101BB0008700B0938800B0938900B0938A0040E01A
:101BC00050E060E070E00091870010918800209163
:101BD000890030918A000E94B102002800E009F0DB
:101BE00001E0002349F0B0E0B0938700B093880093
:101BF000B0938900B0938A0066CF58CFB4E06B2EC3
:101C0000B0E07B2EB7E84B2EB0E05B2EB4E02B2E7D
:101C1000B0E03B2E0E9451057F906F905F904F90F7
:101C20003F902F9008952F923F924F925F926F9224
:101C30007F92B0B3B3FD09C0BDE94B2EB3E83B2E94
:101C4000B2E92B2E0E94B802F4CF25E11BE40FEB82
:101C50000A95F1F71A95E1F72A95D1F70000B0B38C
:101C6000B3FD99C0209074003090750040907600CC
:101C7000509077000E940003B9B3B5FD04C0B9B31A
:101C8000B6FD01C087C0B9B3B5FF23C025E01FE092
:101C900002EF0A95F1F71A95E1F72A95D1F700912D
:101CA00074001091750020917600309177004DEC12
:101CB0005CEC6CEC7DE30E947B0500937400109358
:101CC00075002093760030937700180129010E9457
:101CD0000003B9B3B6FF23C025E01FE002EF0A9569
:101CE000F1F71A95E1F72A95D1F74DEC5CEC6CEC25
:101CF0007DE3009174001091750020917600309181
:101D000077000E94DB040093740010937500209309
:101D1000760030937700180129010E94000340E00B
:101D200050E062E872E40091740010917500209117
:101D30007600309177000E948F03002800E009F0C0
:101D400001E0002349F0B0E0B0937400B093750057
:101D5000B0937600B093770040E050E060E070E030
:101D600000917400109175002091760030917700F9
:101D70000E94B102002800E009F001E0002349F0D0
:101D8000B0E0B0937400B0937500B0937600B09358
:101D9000770072CF64CFB4E06B2EB0E07B2EB4E757
:101DA0004B2EB0E05B2EB8E02B2EB0E03B2E0E9415
:101DB00051057F906F905F904F903F902F900895C6
:101DC000B3B7BE7FB3BFB3B7BD7FB3BFB3B7BB7F3E
:101DD000B3BF089505900D920197E1F70895B0B350
:101DE000B2FF14C000918400003081F400918B0098
:101DF000003061F400916800003041F4B0E0B0932D
:101E00008E00B0938F00BBB3B77FBBBB08959DD945
:101E100008958101920140E050E060E271E40E9487
:101E20000C02180129010E9416020093AB001093C6
:101E3000AC004AE050E00E946C028C0100939B00D1
:101E400010939C004AE050E00091AB001091AC0070
:101E50000E946C028B0100939700109398004AE057
:101E600050E00E946C028C010093990010939A003C
:101E70004AE050E000919700109198000E946C0297
:101E80008B0100939D0010939E004AE050E00E9459
:101E90006C028C0100939F001093A0004AE050E078
:101EA00000919D0010919E000E946C028B01009396
:101EB000A1001093A200B5B3B064B5BB2AE630E030
:101EC00000919B0010919C00F801E20FF31F00812C
:101ED00008BB1BE003E60A95F1F71A95E1F7B5B3E5
:101EE000BF7BB5BBB5B3B062B5BB2AE630E00091AD
:101EF000990010919A00F801E20FF31F00810F770B
:101F000008BB1BE003E60A95F1F71A95E1F7B5B3B4
:101F1000BF7DB5BB00919F001091A000103009F467
:101F20000030C1F0B5B3B061B5BB2AE630E0009136
:101F30009F001091A000F801E20FF31F008108BB81
:101F40001BE003E60A95F1F71A95E1F7B5B3BF7EFA
:101F5000B5BB03C0B5B3BF7EB5BB08952F923F920A
:101F600022243324CCD800936400B1E02B2EB0E0BF
:101F70003B2EC5D800936100B2E02B2EB0E03B2E83
:101F8000BED800936600B3E02B2EB0E03B2EB7D84E
:101F900000936500B4E12B2EB0E03B2EB0D8009347
:101FA0006800B0E0B0938200B1E0B09383003F904E
:101FB0002F900895CF93DF93CDB7DEB7E197CDBFD4
:101FC000DEBF21962F92B0E0B8A7B9A7BAA7BBA7EA
:101FD000B1E02B2E0E9499060093AD001093AE0045
:101FE00020E0322F0E94A00540E050E060EA70E45B
:101FF0000E940C0240E050E060E874E40E94190680
:102000000093A7001093A8002093A9003093AA0082
:10201000B0E0BCA70CA50A30E0F59E010CA510E0CD
:10202000000F111F000F111F020F131F0FA718AB76
:1020300000E010E028EA31E44091A7005091A800A8
:102040006091A9007091AA000E940C024FA558A9A6
:10205000FA0101931193219331939E010CA510E095
:10206000000F111F000F111FF801E20FF31F019164
:1020700011912191319148A559A56AA57BA50E948E
:102080007B0508A719A72AA73BA70CA50F5F0CA7DC
:10209000C1CF40E050E060E271E408A519A52AA58F
:1020A0003BA50E9419060093AF001093B000209347
:1020B000B1003093B2002F90E096CDBFDEBFDF912C
:1020C000CF9108952F920E949B0422245CD8B6B130
:1020D000B460B6B9B6B1B260B6B9B6B1BE7FB6B982
:1020E0002F900895B1B1BE7FB1B9B1B1BD7FB1B983
:1020F000B8E4B0B90E94AE0708950091AF00109106
:10210000B0002091B1003091B20040E050E060E0BA
:1021100070E00E94FC06002800E009F001E00023C6
:1021200021F0B1E0B093860003C0B0E0B093860028
:102130000895BFB7B068BFBFBFB5BE7FBFBDBFB555
:10214000BD7FBFBDBEB5B860BEBDBEB5BF7EBEBDA6
:10215000BEB5B460BEBDBEB5B160BEBDBEE1BBBD67
:10216000B4E8BABDB9B7B061B9BFB8B7B061B8BF6C
:1021700008952F923F924F925F926F92B1E06B2E33
:10218000B8EE5B2EB5E04B2EB9E32B2EB0E03B2E24
:102190000E947507002399F06624B8EE5B2EB6E026
:1021A0004B2EB9E32B2EB0E03B2E0E947507002387
:1021B00031F0B1E0B0938B00BBB3B860BBBBB1E012
:1021C0006B2EB8EE5B2EB6E04B2EB9E32B2EB0E0B3
:1021D0003B2E0E947507002391F1B1E06B2EB8EE03
:1021E0005B2EB5E04B2EB9E32B2EB0E03B2E0E94C8
:1021F0007507002321F1B1E02B2E0E94030725E093
:102200001FE002EF0A95F1F71A95E1F72A95D1F749
:10221000A5DE22E51BE200E00A95F1F71A95E1F749
:102220002A95D1F70000000000000000B8EB4B2E0B
:10223000B2E93B2EB8E82B2E0E94B802F7CFB9B313
:10224000B6FF1FC0B9B3B5FD1CC022E51BE200E01C
:102250000A95F1F71A95E1F72A95D1F700000000E9
:1022600000000000B9B3B6FF0CC0B9B3B5FD09C09A
:10227000B1E0B0938500B0E0B0938B00BBB3B77F03
:10228000BBBB6F905F904F903F902F90089525E1DA
:102290001BE40FEB0A95F1F71A95E1F72A95D1F7B0
:1022A000000025E11BE40FEB0A95F1F71A95E1F721
:1022B0002A95D1F70000B0B3B3FD50C00E94B30718
:1022C00025E11BE40FEB0A95F1F71A95E1F72A9542
:1022D000D1F70000FDDA25E11BE40FEB0A95F1F7D9
:1022E0001A95E1F72A95D1F70000C4DB25E11BE43C
:1022F0000FEB0A95F1F71A95E1F72A95D1F700004F
:1023000092DC25E11BE40FEB0A95F1F71A95E1F752
:102310002A95D1F700000E94CD0825E11BE40FEBC0
:102320000A95F1F71A95E1F72A95D1F700000E9476
:10233000580925E11BE40FEB0A95F1F71A95E1F72F
:102340002A95D1F7000021D825E11BE40FEB0A956F
:10235000F1F71A95E1F72A95D1F7000008952F9229
:102360003F924F925F926F92BFB7BF77BFBFB1E00E
:102370006B2EB8EE5B2EB3E04B2EB0E32B2EB0E00D
:102380003B2E0E947507002309F081DFBFB7B068BC
:10239000BFBF6F905F904F903F902F9008950E9425
:1023A000E00210916400011798F00E94A6041091B9
:1023B0006100011768F00E94E002109166000117A9
:1023C00038F400916800003019F4B1E0B093840053
:1023D0000E94E002109164000117C8F00E94A60458
:1023E00010916100011798F00E94E00210916600C0
:1023F000011769F400916800003049F40E94A604B6
:1024000010916500011718F4B1E0B09384000895AD
:10241000BFB7B068BFBFB5B5B860B5BD05B507609B
:1024200005BDB0E5B3BD09B7006809BF006809BFC5
:102430000895CF93DF93CDB7DEB72297CDBFDEBF30
:10244000219630E040E03615470530F5032F142F74
:10245000040D151D08831983032F142F020D131D5E
:102460003F922F9218010E947F082F903F90188171
:102470002981E12FF22F008323E018E008E70A9575
:10248000F1F71A95E1F72A95D1F7032F142F0F5F73
:102490001F4F302F412FD7CF2196CDBFDEBFDF9109
:1024A000CF9108952F923F924F92409064003090C8
:1024B0006100209060000E942306009395004090E8
:1024C000660030906500209067000E94A30500938D
:1024D000960000919500013009F042C0B1E0B09340
:1024E0008400B0E0B0938500B0B3B2FF27C0009184
:1024F0008300013019F5409174005091750060918E
:102500007600709177000091AF001091B00020919B
:10251000B1003091B2000E949C06002800E009F052
:1025200001E0002359F000918600003039F4009159
:102530006800003019F4BBB3B860BBBBB0B3B2FFE6
:102540000FC000918300013059F4009186000130E2
:1025500039F400916800003019F4BBB3B860BBBB1C
:1025600000919600013009F031C0B0E0B0938400D2
:10257000B0B3B2FF14C000918300013081F4009128
:102580008600003061F400916800003041F4B0E052
:10259000B0938C00B0938D00BBB3B77FBBBBB0B31F
:1025A000B2FF14C000918300013081F400918600D5
:1025B000013061F400916800003041F4B0E0B09364
:1025C0008C00B0938D00BBB3B77FBBBBB0B3B2FD83
:1025D00023C02DE01DE208ED0A95F1F71A95E1F709
:1025E0002A95D1F70000000000918E0010918F0015
:1025F00098012F5F3F4F20938E0030938F00009102
:102600006200109163002017310730F0B0B3B2FDC3
:1026100003C0BBB3B860BBBBB0B3B2FF4BC000914B
:102620008400013009F046C040917400509175005B
:1026300060917600709177000091AF001091B0002A
:102640002091B1003091B2000E949C06002800E069
:1026500009F001E0002371F100918600003051F58E
:1026600000918500003031F500916800003011F5CF
:1026700000918C0010918D000F5F1F4F00938C0014
:1026800010938D0029E01EE105EE0A95F1F71A95E9
:10269000E1F72A95D1F7000020918C0030918D0050
:1026A00000916200109163000217130718F4BBB386
:1026B000B860BBBBB0B3B2FF32C000918400013040
:1026C00071F500918600013051F5009185000030D0
:1026D00031F500916800003011F500918C001091E7
:1026E0008D000F5F1F4F00938C0010938D0029E029
:1026F0001EE105EE0A95F1F71A95E1F72A95D1F753
:10270000000020918C0030918D00009162001091AA
:1027100063000217130718F4BBB3B860BBBBB0B3B8
:10272000B2FF4BC000918400003009F046C04091D8
:10273000740050917500609176007091770000915F
:10274000AF001091B0002091B1003091B2000E9412
:102750009C06002800E009F001E0002371F10091DF
:102760008600003051F500918500003031F5009170
:102770006800013011F500918C0010918D000F5F01
:102780001F4F00938C0010938D0029E01EE105EE91
:102790000A95F1F71A95E1F72A95D1F700002091F3
:1027A0008C0030918D00009162001091630002173F
:1027B000130718F4BBB3B860BBBB409187005091BE
:1027C00088006091890070918A000091AF0010919B
:1027D000B0002091B1003091B2000E94B1020028F7
:1027E00000E009F001E00023B1F0B0B3B2FF13C084
:1027F00000918400013079F400918600003059F492
:1028000000916800003039F4B0E0B0938C00B093D0
:102810008D000E94A306409187005091880060912E
:10282000890070918A000091AF001091B000209152
:10283000B1003091B2000E94B102002800E009F01E
:1028400001E0002391F0B0B3B2FF0FC00091860009
:10285000003059F400916800013039F4B0E0B093D1
:102860008C00B0938D000E94A3064F903F902F9054
:102870000895B5B7B460B5BFB5B7B860B5BFB5B763
:10288000B160B5BFB5B7B260B5BFBBB7B068BBBFCD
:10289000BBB7B064BBBFBFB7B068BFBF08950E94ED
:1028A000B80608950F921F922F923F924F925F9217
:1028B0006F927F928F929F92AF92BF92CF92DF9250
:1028C000EF920F931F932F933F934F935F936F93C9
:1028D0007F938F939F93AF93BF93EF93FF93BF9398
:1028E000BFB7BF9367DBB8B7B061B8BFBF91BFBF19
:1028F000BF91FF91EF91BF91AF919F918F917F9188
:102900006F915F914F913F912F911F910F91EF9098
:10291000DF90CF90BF90AF909F908F907F906F90FF
:102920005F904F903F902F901F900F9018950F92AF
:102930001F922F923F924F925F926F927F928F924F
:102940009F92AF92BF92CF92DF92EF92FF920F933E
:102950001F932F933F934F935F936F937F938F9327
:102960009F93AF93BF93CF93DF93EF93FF93EF9337
:10297000FF93BF93BFB7BF93BFB7BF77BFBF87DC1E
:10298000BFB7B068BFBFBAB7B068BABFBF91BFBF6B
:10299000BF91FF91EF91FF91EF91DF91CF91BF91A7
:1029A000AF919F918F917F916F915F914F913F91E7
:1029B0002F911F910F91FF90EF90DF90CF90BF90DC
:1029C000AF909F908F907F906F905F904F903F90CF
:1029D0002F901F900F9018950F93EF93FF93BF9335
:1029E000BFB7BF93BFB7BF77BFBFB0B3B2FF10C011
:1029F00000918400003061F400918B00003041F4BC
:102A0000B0E0B0938E00B0938F00BBB3B77FBBBB79
:102A1000BFB7B068BFBFBAB7B064BABFBF91BFBFDE
:102A2000BF91FF91EF910F9118950F921F922F92E6
:102A30003F928F929F92AF92BF92CF92DF92EF928E
:102A40000F931F932F933F934F935F936F937F93B6
:102A50008F939F93EF93FF93BF93BFB7BF93BFB77E
:102A6000BF77BFBF009178001091790098012F5F68
:102A70003F4F209378003093790000917E001091B1
:102A80007F000F5F1F4F00937E0010937F00009127
:102A90008000109181000F5F1F4F00938000109302
:102AA0008100313009F4243F99F54091870050911D
:102AB00088006091890070918A000091AF001091A8
:102AC000B0002091B1003091B2000E94B102002804
:102AD00000E009F001E00023A9F0B0B3B2FF12C09A
:102AE000B0E0B0938E00B0938F0025E11BE40FEBB4
:102AF0000A95F1F71A95E1F72A95D1F70000BBB3D3
:102B0000B77FBBBBB0E0B0937800B093790058D9E1
:102B10000091800010918100133009F4083E89F47F
:102B2000B0B3B2FD08C0B0E0B0938E00B0938F0098
:102B3000BBB3B77FBBBBB0E0B0938000B093810064
:102B40003FD9BFB7B068BFBFB8B7B260B8BFBF9119
:102B5000BFBFBF91FF91EF919F918F917F916F9137
:102B60005F914F913F912F911F910F91EF90DF90C7
:102B7000CF90BF90AF909F908F903F902F901F90DD
:102B80000F901895BFE5BDBFB8E0BEBF0E948F167D
:102B90002F923F924F925F926F927F9238D9DED9F7
:102BA00091DAA0DA66DEB4E06B2EB0E07B2EB7E8F7
:102BB0004B2EB0E05B2EB4E02B2EB0E03B2E39DC88
:102BC000B4E06B2EB0E07B2EB4E74B2EB0E05B2E72
:102BD000B8E02B2EB0E03B2E2CDCB2E06B2EB0E048
:102BE0007B2EB2E64B2EB0E05B2EB2E12B2EB0E096
:102BF0003B2E1FDC0DDC9DDAB2DBD1DB7EDAB9DAED
:102C00004EDE50DCECD829E01EE105EE0A95F1F726
:102C10001A95E1F72A95D1F70000EECF7F906F90DB
:102C20005F904F903F902F90FFCF0F921F922F9267
:102C30003F924F925F926F927F928F929F92AF924C
:102C4000BF92CF92DF92EF92FF920F931F932F9339
:102C50003F934F935F936F937F938F939F93AF9324
:102C6000BF93CF93DF93EF93FF93EF93FF93BF93C4
:102C7000BFB7BF932F923F924F925F922090AF00C9
:102C80003090B0004090B1005090B200C2D8B8B7B8
:102C9000B061B8BF5F904F903F902F90BF91BFBF82
:102CA000BF91FF91EF91FF91EF91DF91CF91BF9194
:102CB000AF919F918F917F916F915F914F913F91D4
:102CC0002F911F910F91FF90EF90DF90CF90BF90C9
:102CD000AF909F908F907F906F905F904F903F90BC
:102CE0002F901F900F90189500000000000000002A
:102CF0000000C0F9A4B0999282F880900000000012
:102D000000000000000000000000000100000100C1
:102D1000000000000000000000000C0C00FFA0E616
:102D2000B0E0E8EEFCE285E390E00E94EA0E089550
:00000001FF
